{
  "_format": "hh3-artifact-1",
  "contractName": "AlgoArena",
  "sourceName": "contracts/AlgoArena.sol",
  "abi": [
    {
      "anonymous": false,
      "inputs": [
        {
          "indexed": false,
          "internalType": "string",
          "name": "winner",
          "type": "string"
        },
        {
          "indexed": false,
          "internalType": "string",
          "name": "loser",
          "type": "string"
        },
        {
          "indexed": false,
          "internalType": "uint256",
          "name": "timestamp",
          "type": "uint256"
        }
      ],
      "name": "BattleRecorded",
      "type": "event"
    },
    {
      "inputs": [
        {
          "internalType": "uint256",
          "name": "",
          "type": "uint256"
        }
      ],
      "name": "battles",
      "outputs": [
        {
          "internalType": "string",
          "name": "winner",
          "type": "string"
        },
        {
          "internalType": "string",
          "name": "loser",
          "type": "string"
        },
        {
          "internalType": "uint256",
          "name": "timestamp",
          "type": "uint256"
        }
      ],
      "stateMutability": "view",
      "type": "function"
    },
    {
      "inputs": [],
      "name": "getTotalBattles",
      "outputs": [
        {
          "internalType": "uint256",
          "name": "",
          "type": "uint256"
        }
      ],
      "stateMutability": "view",
      "type": "function"
    },
    {
      "inputs": [
        {
          "internalType": "string",
          "name": "_winner",
          "type": "string"
        },
        {
          "internalType": "string",
          "name": "_loser",
          "type": "string"
        }
      ],
      "name": "recordBattle",
      "outputs": [],
      "stateMutability": "nonpayable",
      "type": "function"
    }
  ],
  "bytecode": "0x6080604052348015600e575f5ffd5b506105858061001c5f395ff3fe608060405234801561000f575f5ffd5b506004361061003f575f3560e01c80633999227214610043578063606d2e961461005857806395c0d52514610083575b5f5ffd5b610056610051366004610331565b610093565b005b61006b610066366004610396565b610152565b60405161007a939291906103db565b60405180910390f35b5f5460405190815260200161007a565b604080516060810182528381526020810183905242918101919091525f8054600181018255908052815160039091027f290decd9548b62a8d60345a988386fc84ba6bc95484008f6362f93160ef3e563019081906100f19082610494565b50602082015160018201906101069082610494565b506040820151816002015550507fc1f20412751873118d2969d369a9cee477371113aa79eef22a09c47918221af2828242604051610146939291906103db565b60405180910390a15050565b5f8181548110610160575f80fd5b905f5260205f2090600302015f91509050805f01805461017f90610410565b80601f01602080910402602001604051908101604052809291908181526020018280546101ab90610410565b80156101f65780601f106101cd576101008083540402835291602001916101f6565b820191905f5260205f20905b8154815290600101906020018083116101d957829003601f168201915b50505050509080600101805461020b90610410565b80601f016020809104026020016040519081016040528092919081815260200182805461023790610410565b80156102825780601f1061025957610100808354040283529160200191610282565b820191905f5260205f20905b81548152906001019060200180831161026557829003601f168201915b5050505050908060020154905083565b634e487b7160e01b5f52604160045260245ffd5b5f82601f8301126102b5575f5ffd5b813567ffffffffffffffff8111156102cf576102cf610292565b604051601f8201601f19908116603f0116810167ffffffffffffffff811182821017156102fe576102fe610292565b604052818152838201602001851015610315575f5ffd5b816020850160208301375f918101602001919091529392505050565b5f5f60408385031215610342575f5ffd5b823567ffffffffffffffff811115610358575f5ffd5b610364858286016102a6565b925050602083013567ffffffffffffffff811115610380575f5ffd5b61038c858286016102a6565b9150509250929050565b5f602082840312156103a6575f5ffd5b5035919050565b5f81518084528060208401602086015e5f602082860101526020601f19601f83011685010191505092915050565b606081525f6103ed60608301866103ad565b82810360208401526103ff81866103ad565b915050826040830152949350505050565b600181811c9082168061042457607f821691505b60208210810361044257634e487b7160e01b5f52602260045260245ffd5b50919050565b601f82111561048f57805f5260205f20601f840160051c8101602085101561046d5750805b601f840160051c820191505b8181101561048c575f8155600101610479565b50505b505050565b815167ffffffffffffffff8111156104ae576104ae610292565b6104c2816104bc8454610410565b84610448565b6020601f8211600181146104f4575f83156104dd5750848201515b5f19600385901b1c1916600184901b17845561048c565b5f84815260208120601f198516915b828110156105235787850151825560209485019460019092019101610503565b508482101561054057868401515f19600387901b60f8161c191681555b50505050600190811b0190555056fea26469706673582212202ee6ab0c93ab886a5570f5e1bca1410eeede8e05d034a86af954158d2bb691e264736f6c634300081c0033",
  "linkReferences": {},
  "deployedLinkReferences": {},
  "immutableReferences": {},
  "inputSourceName": "project/contracts/AlgoArena.sol",
  "buildInfoId": "solc-0_8_28-9c08720f6caa6d88d017685106d1ddbd5873bb0c"
}